:020000040000FA
:100000000C9462000C9436050C940F050C948A0035
:100010000C948A000C948A000C948A000C948A0038
:100020000C948A000C948A000C948A000C94CB05E2
:100030000C94B5050C948A000C948A000C948A00E8
:100040000C94C5040C948A000C9483050C945D05F3
:100050000C948A000C948A000C948A000C948A00F8
:100060000C948A000C948A000000000023002600F3
:10007000290000000008000201000003040700003E
:1000800000000000000000000000250028002B00F8
:1000900000000000240027002A00040404040404D3
:1000A0000404020202020202030303030303010227
:1000B00004081020408001020408102001020408F6
:1000C00010207F0911241FBECFEFD8E0DEBFCDBFC7
:1000D00022E0A6E9B1E001C01D92A835B207E1F720
:1000E00011E0A0E0B1E0E6E2F9E102C005900D9276
:1000F000A639B107D9F710E0C2E6D0E004C02197D5
:10010000FE010E94820AC136D107C9F70E94FA0592
:100110000C94910C0C940000CF93DF9390E0FC01C1
:10012000E255FF4F249186569F4FFC01849188230E
:10013000C1F090E0880F991FFC01E057FF4FC59177
:10014000D491FC01EA57FF4FA591B4919FB7F89461
:100150008881E22FE0958E2388838C91E823EC93AD
:100160009FBFDF91CF910895E9E7F0E08491E5EB3F
:10017000F0E09491E1EAF0E0E491EE23C1F188230C
:1001800039F08330E9F090F4813001F1823011F1DF
:10019000F0E0EE0FFF1FE859FF4FA591B491EC91ED
:1001A000E92381E090E029F580E008958730A9F007
:1001B0008830C9F0843061F7809180008F7D03C062
:1001C000809180008F7780938000E2CF84B58F7715
:1001D00084BDDECF84B58F7DFBCF8091B0008F775B
:1001E0008093B000D5CF8091B0008F7DF9CF80E0B3
:1001F00090E008950895AF92BF92CF92DF92EF9270
:10020000FF920F931F93CF93DF936C017B018B01C0
:10021000040F151FEB015E01AE18BF08C017D10710
:1002200059F06991D601ED91FC910190F081E02D9A
:10023000C6010995892B79F7C501DF91CF911F91EF
:100240000F91FF90EF90DF90CF90BF90AF90089507
:10025000FC01538D448D252F30E0842F90E0821BCC
:10026000930B541710F0CF96089501970895FC0151
:10027000918D828D981761F0A28DAE0FBF2FB11DA9
:100280005D968C91928D9F5F9F73928F90E0089501
:100290008FEF9FEF08952FB7F8948091AF01909161
:1002A000B001A091B101B091B2012FBF8093BF0105
:1002B0009093C001A093C101B093C20187EB91E07C
:1002C0000E94370197FF26C02FB7F8948091AF01A5
:1002D0009091B001A091B101B091B2012FBF4091B6
:1002E000BF015091C0016091C1017091C201841B96
:1002F000950BA60BB70B4091BB015091BC016091CF
:10030000BD017091BE0184179507A607B707B0F22B
:100310008FEF9FEF0895FC01918D828D981731F03A
:10032000828DE80FF11D858D90E008958FEF9FEF8E
:100330000895FC01918D228D892F90E0805C9F4F64
:10034000821B91098F739927089587EB91E00E9492
:10035000990121E0892B09F420E0822F089580E0A3
:1003600090E0892B29F00E94A50181110C940000D6
:100370000895FC01A48DA80FB92FB11DA35ABF4F3A
:100380002C91848D90E001968F739927848FA68994
:10039000B7892C93A089B1898C91837080648C93E8
:1003A000938D848D981306C00288F389E02D808197
:1003B0008F7D80830895EF92FF920F931F93CF93C9
:1003C000DF93EC0181E0888F9B8D8C8D98131AC090
:1003D000E889F989808185FF15C09FB7F894EE8977
:1003E000FF896083E889F9898081837080648083D4
:1003F0009FBF81E090E0DF91CF911F910F91FF901F
:10040000EF900895F62E0B8D10E00F5F1F4F0F73C6
:100410001127E02E8C8D8E110CC00FB607FCFACF81
:10042000E889F989808185FFF5CFCE010E94B90165
:10043000F1CFEB8DEC0FFD2FF11DE35AFF4FF08252
:100440009FB7F8940B8FEA89FB8980818062CFCFB8
:100450006FEF87EB91E00C94DB01CF93DF93EC011E
:10046000888D8823B9F0AA89BB89E889F9898C919C
:1004700085FD03C0808186FD0DC00FB607FCF7CF58
:100480008C9185FFF2CF808185FFEDCFCE010E9458
:10049000B901E9CFDF91CF910895109296011092A2
:1004A0006F002998089510929B0110929C01109260
:1004B0009D0110929E0181E080939601109285002B
:1004C00010928400809104019091050124E0880F2E
:1004D000991F2A95E1F701979093890080938800EE
:1004E000EFE6F0E080818260808308958091A8012A
:1004F0009091A9018330910511F0059721F5809124
:100500009B0190919C01A0919D01B0919E018D3223
:100510009140A105B105BCF080919F01811113C0EC
:1005200080919B0190919C01A0919D01B0919E01B1
:100530008093970190939801A0939901B0939A01A9
:1005400081E080939F010895FF920F931F93CF93B3
:10055000DF93EC018B01FB01F0800E94350AF81655
:1005600021F06F2DCE010E943D0AF801F180219605
:10057000CE010E94350AF81621F06F2DCE010E949F
:100580003D0AC801DF91CF911F910F91FF9008950F
:10059000FF920F931F93CF93DF9303EB11E0C0E122
:1005A000D0E0F801F1908F01CE010E94350AF816D3
:1005B00021F06F2DCE010E943D0A2196C431D10554
:1005C00081F783EB91E0DF91CF911F910F91FF9025
:1005D00008950F931F93CF93DF938C01EB010E943B
:1005E000350A8883C80101960E94350A8983CE01A5
:1005F000DF91CF911F910F910895FB01DC018D9147
:100600009C91009761F0608171816115710539F0ED
:10061000448155810E94830C21E0892B09F020E060
:10062000822F0895FC0124813581232B39F421E0A8
:10063000FB018081882349F020E007C080819181FF
:100640000E94730C21E0892BB9F7822F08950F9334
:100650001F93CF93DF93EC0188819981009759F024
:100660002A813B812617370730F081E0DF91CF9157
:100670001F910F9108958B016F5F7F4F0E94AD0B0B
:10068000009759F0998388831B830A832C813D81CD
:10069000232B59F7FC011082E8CF80E0E7CFEF92DF
:1006A000FF920F931F93CF93DF936115710541F470
:1006B00080E0DF91CF911F910F91FF90EF9008950F
:1006C00041155105B1F07B01EC010C811D81040F36
:1006D000151FB8010E942703882351F3288139810F
:1006E0008C819D81B701820F931F0E947C0C1D831A
:1006F0000C8381E0DECFCF93DF93EC018881998179
:10070000009711F00E94240B198218821D821C820E
:100710001B821A82DF91CF910895EF92FF920F937F
:100720001F93CF93DF93EC017B018A01BA010E94F2
:10073000270381110BC0CE010E947B03CE01DF9104
:10074000CF911F910F91FF90EF9008951D830C831F
:10075000B701888199810E947C0CF0CFFC01118245
:1007600010821382128215821482FB0101900020F4
:10077000E9F73197AF01461B570B0C948D03AF92ED
:10078000BF92CF92DF92EF92FF920F931F93CF937E
:10079000DF937C016B015A0189012417350720F48E
:1007A0008B2D5901042F182F6EE271E0C7010E94B2
:1007B000AE03D6011496CD91DC91AC16BD0620F5A2
:1007C0000C171D0708F4E801D601ED91FC91119773
:1007D000EC0FFD1F108110826D917C916A0D7B1DC5
:1007E00061157105E9F0FB0101900020E9F73197EF
:1007F000AF01461B570BC7010E948D03F601808194
:100800009181C80FD91F1883C701DF91CF911F9124
:100810000F91FF90EF90DF90CF90BF90AF90089531
:10082000C7010E947B03EACFFC0180819181009780
:1008300011F00C94240B08950F931F93CF93DF9323
:1008400000D000D000D0CDB7DEB78C0160E271E0FF
:10085000CE0101960E94AE03F8014481558160816A
:100860007181CE0101960E944F03811104C0CE0117
:1008700001960E947B0341E050E06DE271E0CE0101
:1008800001960E944F03811104C0CE0101960E947F
:100890007B034D815E8169817A8187EB91E00E94C3
:1008A000FB00CE0101960E9414040E9428020E94BF
:1008B00028020E94280226960FB6F894DEBF0FBECB
:1008C000CDBFDF91CF911F910F9108950F931F938B
:1008D000CF93DF93CDB7DEB7A8970FB6F894DEBFFE
:1008E0000FBECDBF6091B3017091B4018091B5018D
:1008F0009091B6011CA21BA21EA21DA218A61FA2A7
:100900002AE08E010F5F1F4FA8010E94D309F80152
:1009100001900020E9F73197AF01401B510BB8015E
:10092000CE0183960E948D036FE271E0C8010E94A0
:10093000AE034FA158A56BA17CA1C8010E944F0333
:10094000811103C0C8010E947B034D815E816981D2
:100950007A8187EB91E00E94FB00C8010E94140499
:10096000CE0183960E9414040E9428020E9428024D
:100970000E942802A8960FB6F894DEBF0FBECDBF26
:10098000DF91CF911F910F9108951F920F920FB693
:100990000F9211242F933F938F939F93AF93BF9305
:1009A0008091AF019091B001A091B101B091B201DD
:1009B0003091AE0123E0230F2D3758F50196A11D8C
:1009C000B11D2093AE018093AF019093B001A0932D
:1009D000B101B093B2018091AA019091AB01A091B5
:1009E000AC01B091AD010196A11DB11D8093AA018A
:1009F0009093AB01A093AC01B093AD01BF91AF91C7
:100A00009F918F913F912F910F900FBE0F901F904C
:100A1000189526E8230F0296A11DB11DD2CF1F9273
:100A20000F920FB60F9211242F933F934F935F9322
:100A30006F937F938F939F93AF93BF93EF93FF93A6
:100A4000E0910201F09103010995FF91EF91BF91AF
:100A5000AF919F918F917F916F915F914F913F9156
:100A60002F910F900FBE0F901F9018951F920F920D
:100A70000FB60F9211242F933F934F935F936F9371
:100A80007F938F939F93AF93BF93EF93FF93E091E7
:100A90000001F09101010995FF91EF91BF91AF9194
:100AA0009F918F917F916F915F914F913F912F9186
:100AB0000F900FBE0F901F9018951F920F920FB6B8
:100AC0000F9211242F933F934F935F936F937F93D4
:100AD0008F939F93AF93BF93EF93FF9387EB91E037
:100AE0000E94B901FF91EF91BF91AF919F918F91BA
:100AF0007F916F915F914F913F912F910F900FBE1A
:100B00000F901F9018951F920F920FB60F921124FD
:100B10002F938F939F93EF93FF93E091C701F091F1
:100B2000C8018081E091CD01F091CE0182FD1BC012
:100B300090818091D0018F5F8F732091D1018217B6
:100B400041F0E091D001F0E0E954FE4F958F8093A1
:100B5000D001FF91EF919F918F912F910F900FBE38
:100B60000F901F9018958081F4CF1F920F920FB6AF
:100B70000F9211248F93EF93FF932998EFE6F0E003
:100B800080818B7F8083FF91EF918F910F900FBEBB
:100B90000F901F9018951F920F920FB60F9211246D
:100BA0008F939F93AF93BF93809196018823C9F051
:100BB000299A80919B0190919C01A0919D01B091F7
:100BC0009E010196A11DB11D80939B0190939C01F4
:100BD000A0939D01B0939E0180916F0084608093EB
:100BE0006F00BF91AF919F918F910F900FBE0F90AB
:100BF0001F901895CF93DF93CDB7DEB72C970FB624
:100C0000F894DEBF0FBECDBF789484B5826084BDFA
:100C100084B5816084BD85B5826085BD85B5816000
:100C200085BD80916E00816080936E00109281007E
:100C30008091810082608093810080918100816039
:100C400080938100809180008160809380008091FA
:100C5000B10084608093B1008091B0008160809386
:100C6000B00080917A00846080937A0080917A004D
:100C7000826080937A0080917A00816080937A000C
:100C800080917A00806880937A001092C10084B1CC
:100C9000836084B9289A87E00E948C0082E00E94D9
:100CA0008C0086E792E0909301018093000180918F
:100CB0006900836080936900E89AE091C701F09130
:100CC000C80182E08083E091C301F091C4011082E9
:100CD000E091C501F091C6018FEC80831092CF01A5
:100CE000E091CB01F091CC0186E08083E091C901D5
:100CF000F091CA01808180618083E091C901F09107
:100D0000CA01808188608083E091C901F091CA01A5
:100D1000808180688083E091C901F091CA0180815F
:100D20008F7D808366E071E090E080E00E94E902C0
:100D300064E071E084E090E00E94E90264EA71E01E
:100D40008CE090E00E94E90280E190E00E94350A88
:100D50008093B30181E190E00E94350A8093B40151
:100D600082E190E00E94350A8093B50183E190E032
:100D70000E94350A8093B601F89410928000109278
:100D80008100809181008860809381008091810042
:100D90008160809381008FE190E090938B0080933D
:100DA0008A0010926F00789495E0292E312CAA24A5
:100DB000A394B12C33E0832E912C80E0482E80E068
:100DC000582E87EB91E00E949901892B09F440C0CD
:100DD0006EE271E0CE0107960E94AE030E944B01C5
:100DE00097FD0FC08A30910561F089831A8241E036
:100DF00050E0BE016F5F7F4FCE0107960E944F0308
:100E0000EDCFCF80D884C114D10439F00B851C8577
:100E100076010115110509F061C08B859C85892B30
:100E200099F06DE371E0CE0107960E9412038823CA
:100E300009F48AC08091A8019091A901892B21F41D
:100E4000B092A901A092A801CE0107960E941404B5
:100E50008091A8019091A9012091A6013091A7014C
:100E600082179307E1F06AE871E0009721F001979B
:100E700071F46FE871E0CE0101960E94AE03CE01DD
:100E800001960E941C04CE0101960E9414048091D8
:100E9000A8019091A9019093A7018093A6010091C8
:100EA000A8011091A9010330110509F466C108F0E9
:100EB0005CC10130110509F4BEC10230110509F40D
:100EC000E1C14114510409F47CCF0E94A50188239B
:100ED00009F473CF0E94000070CF730137012FEF28
:100EE000621A720AF7018081082E000C990B0E9489
:100EF000190A892B91F7015011090C0D1D1DF801DC
:100F00008081082E000C990B0E94190A892B31F060
:100F10000E151F0518F001501109F1CF0F5F1F4F7B
:100F2000A8014E195F095C874B87CE14DF0420F4BB
:100F3000B701C6010E946A0CEF81F8858B859C85FC
:100F4000E80FF91F108269CF67E471E0CE010796C0
:100F50000E941203882339F00E944D021092A901C9
:100F60001092A80171CF60E571E0CE0107960E9452
:100F70001203882381F08091A8019091A901892B07
:100F800009F062CF10929F010E9453023092A90192
:100F90002092A80159CF68E571E0CE0107960E9422
:100FA0001203182F882369F01092B3011092B40134
:100FB0001092B5011092B6010E9466040E94C80208
:100FC00043CF68E671E0CE0101960E94AE032B8507
:100FD0003C858D819E812817390740F0BE016F5FE7
:100FE0007F4FCE0107960E94FD02182FCE01019679
:100FF0000E941404112361F12B853C854BE050E0E5
:10100000BE01695F7F4FCE0101960E94BF038981B7
:101010009A81C12CD12C7601009719F00E94AC095D
:101020006B01CE0101960E941404809106019091FB
:101030000701C816D90609F407CFD0920701C0925C
:10104000060166E071E090E080E00E94A402FCCE20
:1010500064E771E0CE0101960E94AE032B853C85CA
:101060008D819E812817390740F0BE016F5F7F4F49
:10107000CE0107960E94FD02182FCE0101960E9414
:101080001404112361F12B853C854AE050E0BE0138
:10109000695F7F4FCE0101960E94BF0389819A81CB
:1010A000C12CD12C7601009719F00E94AC096B017C
:1010B000CE0101960E9414048091040190910501D3
:1010C000C816D90609F4C0CED0920501C092040119
:1010D00064E071E084E090E00E94A402B5CE6FE786
:1010E00071E0CE0101960E94AE032B853C858D8177
:1010F0009E812817390740F0BE016F5F7F4FCE01F8
:1011000007960E94FD02182FCE0101960E9414043A
:10111000112309F499CE2B853C854AE050E0BE01AD
:10112000695F7F4FCE0101960E94BF0389819A813A
:10113000C12CD12C7601009719F00E94AC096B01EB
:10114000CE0101960E9414048091A4019091A50102
:10115000C816D90609F478CED092A501C092A40190
:1011600064EA71E08CE090E070CF0430110509F47E
:10117000BCC00530110509F0A4CE80919F018823E1
:1011800009F444C040919B0150919C0160919D01E4
:1011900070919E018091970190919801A091990181
:1011A000B0919A01481B590B6A0B7B0B8091060189
:1011B00090910701092E000CAA0BBB0B4817590789
:1011C0006A077B071CF10E944D020330110509F0EC
:1011D00087C08091B3019091B401A091B501B09105
:1011E000B6010196A11DB11D8093B3019093B40186
:1011F000A093B501B093B6010E9466040E94C80294
:1012000084E090E09093A9018093A80180919B01D4
:1012100090919C01A0919D01B0919E018C3D9540C3
:10122000A105B1050CF44DCE0E944D021092A9010A
:101230001092A80146CE0E94B400019709F041CE59
:101240008091A4019091A501181619060CF03FC0D9
:101250002FB7F8948091AF019091B001A091B101A6
:10126000B091B2012FBF8093A0019093A101A093F0
:10127000A201B093A30182E090E09093A901809332
:10128000A8011FCE8FB7F8944091AF015091B001E3
:101290006091B1017091B2018FBF8091A0019091D6
:1012A000A101A091A201B091A301481B590B6A0BA7
:1012B0007B0B8091A4019091A501092E000CAA0B33
:1012C000BB0B481759076A077B0708F4FACD109241
:1012D0009F010E9453029092A9018092A801F1CD32
:1012E0001092A9011092A80191CF0E94B400892BFD
:1012F00009F0E7CDB092A901A092A801E2CDE7EBF9
:10130000F1E01382128288EE93E0A0E0B0E08483E3
:101310009583A683B78382E191E09183808385ECF6
:1013200090E09587848784EC90E09787868780ECAF
:1013300090E0918B808B81EC90E0938B828B82ECA0
:1013400090E0958B848B86EC90E0978B868B118E4A
:10135000128E138E148E08951F93FC0199278827EF
:10136000BC01E89411911032E9F3193010F01E30ED
:10137000C8F31B3251F01D3249F4689406C00E9434
:10138000E209610F711D811D911D119110531A30D9
:10139000B0F33EF490958095709561957F4F8F4F97
:1013A0009F4F1F910895BB272A3051F4992342F48F
:1013B000BDE290958095709561957F4F8F4F9F4FBF
:1013C0000C94F809592F482F372F262F660F771FB7
:1013D000881F991F660F771F881F991F620F731F41
:1013E000841F951F660F771F881F991F0895BB27BD
:1013F000FA01A62F6217710581059105330B30FBA9
:1014000066F0AA27660F771F881F991FAA1FA217C9
:1014100010F0A21B63953850A9F7A05DAA3308F01D
:10142000A95DA19336F7B111B1931082CA010C9452
:10143000220A91110C94320A803219F08950855099
:10144000C8F70895DC01FC01672F71917723E1F75C
:10145000329704C07C916D9370836291AE17BF0781
:10146000C8F30895992788270895F999FECF92BD6A
:1014700081BDF89A992780B50895262FF999FECF56
:101480001FBA92BD81BD20BD0FB6F894FA9AF99AA1
:101490000FBE019608952F923F924F925F926F92E6
:1014A0007F928F929F92AF92BF92CF92DF92EF92F4
:1014B000FF920F931F93CF93DF93CDB7DEB7CA1B75
:1014C000DB0B0FB6F894DEBF0FBECDBF09942A88A0
:1014D000398848885F846E847D848C849B84AA8448
:1014E000B984C884DF80EE80FD800C811B81AA81D5
:1014F000B981CE0FD11D0FB6F894DEBF0FBECDBFA0
:10150000ED010895EE0FFF1F0590F491E02D099471
:101510000F931F93CF93DF938230910510F482E0F5
:1015200090E0E0915602F091570230E020E0B0E008
:10153000A0E0309799F42115310509F44AC0281B21
:10154000390B24303105D8F58A819B8161157105ED
:1015500089F1FB0193838283FE0111C04081518197
:101560000281138148175907E0F04817590799F489
:10157000109761F012960C93129713961C93329663
:10158000CF01DF91CF911F910F91089500935602E3
:1015900010935702F4CF2115310551F0421753072C
:1015A00038F0A901DB019A01BD01DF01F801C1CFCB
:1015B000EF01F9CF9093570280935602CDCFFE01F1
:1015C000E20FF31F819391932250310939832883CD
:1015D000D7CF2091540230915502232B41F4209112
:1015E0000A0130910B01309355022093540220914F
:1015F0000801309109012115310541F42DB73EB79D
:1016000040910C0150910D01241B350BE0915402C7
:10161000F0915502E217F307A0F42E1B3F0B281799
:10162000390778F0AC014E5F5F4F2417350748F05B
:101630004E0F5F1F50935502409354028193919334
:101640009FCFF0E0E0E09CCFCF93DF930097E9F0ED
:10165000FC01329713821282A0915602B091570278
:10166000ED0130E020E01097A1F420813181820F5C
:10167000931F20915402309155022817390709F021
:1016800061C0F0935502E0935402DF91CF91089529
:10169000EA01CE17DF07E8F54A815B819E0141151B
:1016A0005105B1F7E901FB83EA8349915991C40FD0
:1016B000D51FEC17FD0761F4808191810296840F9C
:1016C000951FE90199838883828193819B838A8313
:1016D000F0E0E0E012968D919C9113970097B9F598
:1016E0002D913C911197CD010296820F931F20916D
:1016F0005402309155022817390739F6309751F5C1
:101700001092570210925602B0935502A0935402C1
:10171000BCCFD383C28340815181840F951FC817EA
:10172000D90761F44E5F5F4F88819981480F591F37
:10173000518340838A819B81938382832115310564
:1017400009F0B0CFF0935702E09356029ECFFD010F
:10175000DC01C0CF13821282D7CFB0E0A0E0E3EB70
:10176000FBE00C944D0A8C01009751F4CB010E94D0
:10177000880A8C01C801CDB7DEB7E0E10C94690A94
:10178000FC01E60FF71F9C0122503109E217F30715
:1017900008F49DC0D901CD91DC911197C617D707E8
:1017A00098F0C530D10530F3CE010497861797071E
:1017B00008F3C61BD70B2297C193D1936D937C93EB
:1017C000CF010E94240BD6CF5B01AC1ABD0A4C019D
:1017D0008C0E9D1EA0915602B0915702512C412CA7
:1017E000F12CE12C109731F5809154029091550223
:1017F0008815990509F05CC04616570608F058C0D0
:101800008091080190910901009741F48DB79EB72E
:1018100040910C0150910D01841B950BE817F907BD
:1018200008F055C0F0935502E0935402F90171831A
:101830006083A0CF8D919C91119712966C90129716
:1018400013967C901397A815B90559F56C0142E0E1
:10185000C40ED11CCA14DB0420F1AC014A195B0987
:10186000DA011296159780F0628273825183408369
:10187000D9016D937C93E114F10471F0D7011396B3
:10188000FC93EE93129776CF22968C0F9D1FF90151
:1018900091838083F301EFCFF0935702E0935602D8
:1018A00069CF4816590608F42C017D01D3019ACF5F
:1018B000CB010E94880A7C01009749F0AE01B80173
:1018C0000E946A0CC8010E94240B870153CF10E0CC
:1018D00000E050CFFB01DC0102C001900D924150AD
:1018E0005040D8F70895FB01DC018D9101908019DB
:1018F0000110D9F3990B0895FB01DC0101900D92C1
:101900000020E1F70895FB01DC014150504030F028
:101910008D910190801919F40020B9F7881B990B5B
:101920000895F894FFCFFA00FA005E01500000001D
:101930005802800000000000DB01FB0028012D029E
:10194000990137018B0170616765302E74302E74F8
:1019500078743D220070616765302E74332E766195
:101960006C3D00434D443A535441525400434D445E
:101970003A53544F5000434D443A4A4F4700434D69
:10198000443A52455345545F434F554E54005345D6
:10199000543A4D415247494E2C005345543A535006
:1019A0004545442C005345543A44454C41592C007C
:0C19B00049444C450041524D45440000A4
:107E0000112484B714BE81FFF0D085E080938100F7
:107E100082E08093C00088E18093C10086E0809377
:107E2000C20080E18093C4008EE0C9D0259A86E02C
:107E300020E33CEF91E0309385002093840096BBD3
:107E4000B09BFECF1D9AA8958150A9F7CC24DD24C4
:107E500088248394B5E0AB2EA1E19A2EF3E0BF2EE7
:107E6000A2D0813461F49FD0082FAFD0023811F036
:107E7000013811F484E001C083E08DD089C08234E0
:107E800011F484E103C0853419F485E0A6D080C0E4
:107E9000853579F488D0E82EFF2485D0082F10E0AE
:107EA000102F00270E291F29000F111F8ED06801E7
:107EB0006FC0863521F484E090D080E0DECF843638
:107EC00009F040C070D06FD0082F6DD080E0C81688
:107ED00080E7D80618F4F601B7BEE895C0E0D1E017
:107EE00062D089930C17E1F7F0E0CF16F0E7DF06D8
:107EF00018F0F601B7BEE89568D007B600FCFDCFD4
:107F0000A601A0E0B1E02C9130E011968C91119780
:107F100090E0982F8827822B932B1296FA010C0160
:107F200087BEE89511244E5F5F4FF1E0A038BF0790
:107F300051F7F601A7BEE89507B600FCFDCF97BE46
:107F4000E89526C08437B1F42ED02DD0F82E2BD052
:107F50003CD0F601EF2C8F010F5F1F4F84911BD097
:107F6000EA94F801C1F70894C11CD11CFA94CF0C13
:107F7000D11C0EC0853739F428D08EE10CD085E9AC
:107F80000AD08FE07ACF813511F488E018D01DD067
:107F900080E101D065CF982F8091C00085FFFCCF94
:107FA0009093C60008958091C00087FFFCCF809118
:107FB000C00084FD01C0A8958091C6000895E0E648
:107FC000F0E098E1908380830895EDDF803219F02E
:107FD00088E0F5DFFFCF84E1DECF1F93182FE3DFCA
:107FE0001150E9F7F2DF1F91089580E0E8DFEE27F6
:047FF000FF270994CA
:027FFE00040479
:00000001FF
