:020000040000FA
:100000000C9462000C948A000C948A000C948A0070
:100010000C948A000C948A000C948A000C948A0038
:100020000C948A000C948A000C948A000C9413049B
:100030000C94FD030C948A000C948A000C948A00A2
:100040000C945B030C948A000C94CB030C94A503D2
:100050000C948A000C948A000C948A000C948A00F8
:100060000C948A000C948A000000000023002600F3
:10007000290000000008000201000003040700003E
:1000800000000000000000000000250028002B00F8
:1000900000000000240027002A00040404040404D3
:1000A0000404020202020202030303030303010227
:1000B00004081020408001020408102001020408F6
:1000C0001020350711241FBECFEFD8E0DEBFCDBF13
:1000D00022E0ACE3B2E001C01D92A23FB207E1F71B
:1000E00012E0A0E0B1E0E4E5F4E102C005900D9279
:1000F000AC33B107D9F710E0C2E6D0E004C02197D5
:10010000FE010E941908C136D107C9F70E944204B6
:100110000C94280A0C940000CF93DF9390E0FC012C
:10012000E255FF4F249186569F4FFC01849188230E
:10013000C1F090E0880F991FFC01E057FF4FC59177
:10014000D491FC01EA57FF4FA591B4919FB7F89461
:100150008881E22FE0958E2388838C91E823EC93AD
:100160009FBFDF91CF91089590E0FC01EE58FF4FC3
:100170002491FC01E255FF4F3491FC01E656FF4FFC
:10018000E491EE23C1F1222339F02330E9F090F419
:10019000213001F1223011F1F0E0EE0FFF1FE8599C
:1001A000FF4FA591B491EC91E32381E090E029F514
:1001B00080E008952730A9F02830C9F0243061F795
:1001C000809180008F7D03C0809180008F77809325
:1001D0008000E2CF84B58F7784BDDECF84B58F7D7C
:1001E000FBCF8091B0008F778093B000D5CF809106
:1001F000B0008F7DF9CF80E090E00895AF92BF927C
:10020000CF92DF92EF92FF920F931F93CF93DF93E2
:100210006C017B018B01040F151FEB015E01AE1811
:10022000BF08C017D10759F06991D601ED91FC9133
:100230000190F081E02DC6010995892B79F7C50160
:10024000DF91CF911F910F91FF90EF90DF90CF90B2
:10025000BF90AF900895FC01538D448D252F30E061
:10026000842F90E0821B930B541710F0CF960895C3
:1002700001970895FC01918D828D981761F0A28DF0
:10028000AE0FBF2FB11D5D968C91928D9F5F9F73B6
:10029000928F90E008958FEF9FEF08952FB7F89415
:1002A00080914D0290914E02A0914F02B091500268
:1002B0002FBF8093590290935A02A0935B02B09390
:1002C0005C0281E592E00E943A0197FF26C02FB7B9
:1002D000F89480914D0290914E02A0914F02B091FE
:1002E00050022FBF4091590250915A0260915B0217
:1002F00070915C02841B950BA60BB70B40915502C5
:1003000050915602609157027091580284179507D8
:10031000A607B707B0F28FEF9FEF0895FC01918D0C
:10032000828D981731F0828DE80FF11D858D90E058
:1003300008958FEF9FEF0895FC01918D228D892FF5
:1003400090E0805C9F4F821B91098F7399270895DD
:1003500081E592E00E949C0121E0892B09F420E0D4
:10036000822F089580E090E0892B29F00E94A80157
:1003700081110C9400000895FC01A48DA80FB92FE1
:10038000B11DA35ABF4F2C91848D90E001968F73BD
:100390009927848FA689B7892C93A089B1898C91DC
:1003A000837080648C93938D848D981306C002882B
:1003B000F389E02D80818F7D80830895EF92FF92F5
:1003C0000F931F93CF93DF93EC0181E0888F9B8D78
:1003D0008C8D98131AC0E889F989808185FF15C032
:1003E0009FB7F894EE89FF896083E889F989808155
:1003F0008370806480839FBF81E090E0DF91CF9124
:100400001F910F91FF90EF900895F62E0B8D10E045
:100410000F5F1F4F0F731127E02E8C8D8E110CC0B4
:100420000FB607FCFACFE889F989808185FFF5CFFF
:10043000CE010E94BC01F1CFEB8DEC0FFD2FF11D21
:10044000E35AFF4FF0829FB7F8940B8FEA89FB893C
:1004500080818062CFCFCF93DF93EC01888D88239A
:10046000B9F0AA89BB89E889F9898C9185FD03C017
:10047000808186FD0DC00FB607FCF7CF8C9185FFFC
:10048000F2CF808185FFEDCFCE010E94BC01E9CF84
:10049000DF91CF9108951092410210924202109282
:1004A00043021092440281E080933C021092850046
:1004B00010928400809100019091010124E0880F46
:1004C000991F2A95E1F701979093890080938800FE
:1004D000EFE6F0E08081826080830895FC01019066
:1004E0000020E9F73197AF01481B590BBC0181E5AA
:1004F00092E00C94FE008F929F92AF92BF920F9366
:100500001F93CF93DF93CDB7DEB7A1970FB6F894C3
:10051000DEBF0FBECDBF19A2423008F44AE08E0103
:100520000F5D1F4F842E912CB12CA12CA50194019D
:100530000E94F707E62FB901CA01EA30F4F4E05D42
:10054000D801EE938D01232B242B252B79F790E0F6
:1005500080E0109719F0CD010E946E02A1960FB6AF
:10056000F894DEBF0FBECDBFDF91CF911F910F91E9
:10057000BF90AF909F908F900895E95CE1CFCF92AC
:10058000DF92EF92FF92CF93DF936B017C016DE2DC
:1005900081E592E00E94DE01EC0166277727CB011E
:1005A0006C197D098E099F094AE00E947B028C0F1D
:1005B0009D1FDF91CF91FF90EF90DF90CF90089536
:1005C000CF93DF930E946E02EC018CE191E00E94D8
:1005D0006E028C0F9D1FDF91CF9108950F931F9393
:1005E000CF93DF93EC0188819981009759F02A819C
:1005F0003B812617370730F081E0DF91CF911F91C3
:100600000F9108958B016F5F7F4F0E9444090097FF
:1006100059F0998388831B830A832C813D81232B86
:1006200059F7FC011082E8CF80E0E7CFCF93DF934A
:10063000EC0188819981009711F00E94BB08198212
:1006400018821D821C821B821A82DF91CF9108952D
:10065000EF92FF920F931F93CF93DF938C017B0157
:10066000EB0109900020E9F72197C61BD70BBE01CB
:100670000E94EE02811109C0C801DF91CF911F9144
:100680000F91FF90EF900C941603F801D583C4836B
:10069000B70180819181DF91CF911F910F91FF90E0
:1006A000EF900C94130AFC0180819181009711F066
:1006B0000C94BB0808951F920F920FB60F9211244D
:1006C0002F933F938F939F93AF93BF9380914D024E
:1006D00090914E02A0914F02B091500230914C0285
:1006E00023E0230F2D3758F50196A11DB11D20934E
:1006F0004C0280934D0290934E02A0934F02B09310
:1007000050028091480290914902A0914A02B09112
:100710004B020196A11DB11D80934802909349029E
:10072000A0934A02B0934B02BF91AF919F918F91DA
:100730003F912F910F900FBE0F901F90189526E8B4
:10074000230F0296A11DB11DD2CF1F920F920FB69B
:100750000F9211242F933F934F935F936F937F9347
:100760008F939F93AF93BF93EF93FF9381E592E0B5
:100770000E94BC01FF91EF91BF91AF919F918F912A
:100780007F916F915F914F913F912F910F900FBE8D
:100790000F901F9018951F920F920FB60F92112471
:1007A0002F938F939F93EF93FF93E0916102F091CA
:1007B00062028081E0916702F091680282FD1BC0B5
:1007C000908180916A028F5F8F7320916B028217F4
:1007D00041F0E0916A02F0E0EF5AFD4F958F80936F
:1007E0006A02FF91EF919F918F912F910F900FBE11
:1007F0000F901F9018958081F4CF1F920F920FB623
:100800000F9211248F93EF93FF932998EFE6F0E076
:1008100080818B7F8083FF91EF918F910F900FBE2E
:100820000F901F9018951F920F920FB60F921124E0
:100830008F939F93AF93BF9380913C028823C9F01D
:10084000299A8091410290914202A0914302B09175
:1008500044020196A11DB11D809341029093420272
:10086000A0934302B093440280916F008460809310
:100870006F00BF91AF919F918F910F900FBE0F901E
:100880001F901895CF93DF93CDB7DEB72C970FB697
:10089000F894DEBF0FBECDBF789484B5826084BD6E
:1008A00084B5816084BD85B5826085BD85B5816074
:1008B00085BD80916E00816080936E0010928100F2
:1008C00080918100826080938100809181008160AD
:1008D000809381008091800081608093800080916E
:1008E000B10084608093B1008091B00081608093FA
:1008F000B00080917A00846080937A0080917A00C1
:10090000826080937A0080917A00816080937A007F
:1009100080917A00806880937A001092C100219AB9
:10092000209A289A87E00E948C0086E00E948C0022
:10093000E0916102F091620282E08083E0915D02C9
:10094000F0915E021082E0915F02F09160028FEC04
:10095000808310926902E0916502F091660286E060
:100960008083E0916302F0916402808180618083E2
:10097000E0916302F0916402808188608083E0915D
:100980006302F0916402808180688083E091630259
:10099000F091640280818F7D808390E080E00E94EE
:1009A000AA078093020181E090E00E94AA07809349
:1009B00003018091020190910301853F914030F045
:1009C00080E590E09093030180930201F8941092E7
:1009D0008000109281008091810088608093810066
:1009E000809181008160809381008FE190E09093FD
:1009F0008B0080938A0010926F0078948FE191E0D1
:100A00000E94E0025524539420E0622E20E0722ED2
:100A100032E0A32EB12C81E592E00E949C01892B4B
:100A200009F45EC018861F821A8619861C861B86EA
:100A30006EE171E0CE0107960E9428030E944E01EC
:100A40000B851C8597FD1CC08A309105C9F08983F0
:100A50001A820F5F1F4FB801CE0107960E94EE0267
:100A6000882361F32F8138858B859C85BE016F5F5C
:100A70007F4F820F931F0E94130A1C870B87DECFC4
:100A8000CF80D884C114D10429F076010115110555
:100A900009F040C08B859C85892BF1F00F8118856A
:100AA00067E471E0C8010E940A0A892B09F068C056
:100AB00081E591E00E94E002809146029091470218
:100AC000892B51F4109245020E944B0281E090E084
:100AD0009093470280934602CE0107960E945303EB
:100AE00080914602909147028130910509F436C108
:100AF00008F41AC1029709F4ADC16114710409F434
:100B00008ACF0E94A801882309F485CF0E940000A3
:100B100082CF740147018FEF881A980AF70180810C
:100B2000082E000C990B0E949E07892B91F701500B
:100B300011090C0D1D1DF8018081082E000C990B68
:100B40000E949E07892B31F00E151F0518F00150E9
:100B50001109F1CF0F5F1F4FA8014E195F095C8784
:100B60004B87CE14DF0420F4B701C6010E94010AAE
:100B7000EF81F8858B859C85E80FF91F10828ACF5D
:100B80006DE671E0C8010E940A0A892B71F486E7BC
:100B900091E00E94E00210923C0210926F002998AE
:100BA000109247021092460297CF1A8219821C8235
:100BB0001B821E821D826AE971E0CE0101960E94AD
:100BC00028034D815E818B859C858417950770F085
:100BD0008F819885009751F069817A81611571053F
:100BE00029F00E941A0A11E0892B09F010E0CE01C9
:100BF00001960E945303112309F46ECFEB84FC8409
:100C00008BE0C82ED12CFBE0EF16F10420F0670139
:100C10009BE0E92EF12C1A8219821C821B821E8213
:100C20001D826EE171E0CE0101960E9428030B85C2
:100C30001C85E016F10650F5C016D10608F48601B1
:100C4000EF81F885E00FF11F908010828F819885E9
:100C5000E80EF91EE114F10479F0F701019000208B
:100C6000E9F731976F01CE18DF08B601CE01019682
:100C70000E94EE02811148C0CE0101960E94160327
:100C80008F819885080F191FF801908289819A81B8
:100C9000009709F441C00E946207709303016093BA
:100CA000020186EA91E00E946E0260910201709159
:100CB0000301072E000C880B990B97FF31C00E948F
:100CC000BF028CE191E00E946E021091020190E05F
:100CD00080E00E94AA07811729F0612F90E080E050
:100CE0000E94B2071091030181E090E00E94AA07E0
:100CF000181729F0612F81E090E00E94B207CE0121
:100D000001960E945303E8CEDE82CD82B70189812D
:100D10009A810E94130AB4CF60E070E0CB01BDCF8E
:100D20004AE00E947B02CDCF87E00E94B4008C0194
:100D3000019709F0E2CE86E00E94B400892B09F009
:100D4000DCCE109245020E944B02109347020093A2
:100D500046028AEC91E00E94E002CFCEF894C09067
:100D60004102D0904202E0904302F0904402789415
:100D700080914502811131C086E00E94B400019744
:100D800041F550924502F8948091410290914202BF
:100D9000A0914302B091440280933D0290933E02A1
:100DA000A0933F02B093400278948BEE91E00E94B2
:100DB0006E0260913D0270913E0280913F029091DF
:100DC000400297FF43C00E94BF028CE191E00E9465
:100DD0006E02809145028823D9F080913D02909166
:100DE0003E02A0913F02B0914002B701A601481B0C
:100DF000590B6A0B7B0B8091020190910301092E24
:100E0000000CAA0BBB0B481759076A077B0744F471
:100E1000FCEDCF16F5E0DF06E104F1040CF46DCE35
:100E200010923C0210926F002998B0924702A09253
:100E3000460282E092E02CEDC21625E0D206E104E3
:100E4000F1040CF088CF8BE292E085CF4AE00E945B
:100E50007B02BBCF87E00E94B400892B09F04DCE06
:100E6000109247021092460248CEE1E5F2E013826A
:100E7000128288EE93E0A0E0B0E084839583A6839D
:100E8000B7838EE091E09183808385EC90E0958735
:100E9000848784EC90E09787868780EC90E0918B44
:100EA000808B81EC90E0938B828B82EC90E0958B31
:100EB000848B86EC90E0978B868B118E128E138E2E
:100EC000148E08951F93FC0199278827BC01E8948C
:100ED00011911032E9F3193010F01E30C8F31B32B3
:100EE00051F01D3249F4689406C00E948907610FD1
:100EF000711D811D911D119110531A30B0F33EF4F4
:100F000090958095709561957F4F8F4F9F4F1F9162
:100F10000895592F482F372F262F660F771F881FC8
:100F2000991F660F771F881F991F620F731F841FF9
:100F3000951F660F771F881F991F089591110C94B4
:100F4000A707803219F089508550C8F7089599276E
:100F500088270895F999FECF92BD81BDF89A992707
:100F600080B50895262FF999FECF1FBA92BD81BD95
:100F700020BD0FB6F894FA9AF99A0FBE019608951B
:100F80002F923F924F925F926F927F928F929F9299
:100F9000AF92BF92CF92DF92EF92FF920F931F9387
:100FA000CF93DF93CDB7DEB7CA1BDB0B0FB6F89438
:100FB000DEBF0FBECDBF09942A88398848885F8478
:100FC0006E847D848C849B84AA84B984C884DF80E9
:100FD000EE80FD800C811B81AA81B981CE0FD11DCD
:100FE0000FB6F894DEBF0FBECDBFED010895A1E2AC
:100FF0001A2EAA1BBB1BFD010DC0AA1FBB1FEE1F93
:10100000FF1FA217B307E407F50720F0A21BB30BDD
:10101000E40BF50B661F771F881F991F1A9469F759
:1010200060957095809590959B01AC01BD01CF01B5
:101030000895EE0FFF1F0590F491E02D09940F9392
:101040001F93CF93DF938230910510F482E090E0FC
:10105000E091F002F091F10230E020E0B0E0A0E099
:10106000309799F42115310509F44AC0281B390B32
:1010700024303105D8F58A819B816115710589F18C
:10108000FB0193838283FE0111C040815181028163
:10109000138148175907E0F04817590799F410973A
:1010A00061F012960C93129713961C933296CF010F
:1010B000DF91CF911F910F9108950093F00210934B
:1010C000F102F4CF2115310551F04217530738F0E2
:1010D000A901DB019A01BD01DF01F801C1CFEF01D8
:1010E000F9CF9093F1028093F002CDCFFE01E20F91
:1010F000F31F819391932250310939832883D7CFED
:101100002091EE023091EF02232B41F42091060151
:10111000309107013093EF022093EE0220910401F9
:10112000309105012115310541F42DB73EB74091AD
:10113000080150910901241B350BE091EE02F0915A
:10114000EF02E217F307A0F42E1B3F0B2817390715
:1011500078F0AC014E5F5F4F2417350748F04E0F13
:101160005F1F5093EF024093EE02819391939FCFC4
:10117000F0E0E0E09CCFCF93DF930097E9F0FC0133
:10118000329713821282A091F002B091F102ED0128
:1011900030E020E01097A1F420813181820F931F6D
:1011A0002091EE023091EF022817390709F061C053
:1011B000F093EF02E093EE02DF91CF910895EA0100
:1011C000CE17DF07E8F54A815B819E014115510585
:1011D000B1F7E901FB83EA8349915991C40FD51F07
:1011E000EC17FD0761F4808191810296840F951FB1
:1011F000E90199838883828193819B838A83F0E0CC
:10120000E0E012968D919C9113970097B9F52D917E
:101210003C911197CD010296820F931F2091EE020F
:101220003091EF022817390739F6309751F51092AF
:10123000F1021092F002B093EF02A093EE02BCCF45
:10124000D383C28340815181840F951FC817D9076A
:1012500061F44E5F5F4F88819981480F591F518318
:1012600040838A819B81938382832115310509F014
:10127000B0CFF093F102E093F0029ECFFD01DC01CC
:10128000C0CF13821282D7CFB0E0A0E0EAE4F9E049
:101290000C94C2078C01009751F4CB010E941F08E7
:1012A0008C01C801CDB7DEB7E0E10C94DE07FC018C
:1012B000E60FF71F9C0122503109E217F30708F4EB
:1012C0009DC0D901CD91DC911197C617D70798F031
:1012D000C530D10530F3CE0104978617970708F380
:1012E000C61BD70B2297C193D1936D937C93CF01EB
:1012F0000E94BB08D6CF5B01AC1ABD0A4C018C0E14
:101300009D1EA091F002B091F102512C412CF12CC4
:10131000E12C109731F58091EE029091EF02881543
:10132000990509F05CC04616570608F058C0809130
:10133000040190910501009741F48DB79EB740914B
:10134000080150910901841B950BE817F90708F073
:1013500055C0F093EF02E093EE02F90171836083D0
:10136000A0CF8D919C91119712966C901297139625
:101370007C901397A815B90559F56C0142E0C40E8D
:10138000D11CCA14DB0420F1AC014A195B09DA0153
:101390001296159780F06282738251834083D9013F
:1013A0006D937C93E114F10471F0D7011396FC93D3
:1013B000EE93129776CF22968C0F9D1FF9019183A1
:1013C0008083F301EFCFF093F102E093F00269CF55
:1013D0004816590608F42C017D01D3019ACFCB01A0
:1013E0000E941F087C01009749F0AE01B8010E94DD
:1013F000010AC8010E94BB08870153CF10E000E03A
:1014000050CFFB01DC0102C001900D9241505040D1
:10141000D8F70895FB01DC018D910190801901102E
:10142000D9F3990B0895FB01DC0101900D92002086
:10143000E1F70895FB01DC014150504030F08D91FF
:101440000190801919F40020B9F7881B990B0895B1
:10145000F894FFCF5E0150000000F202800000000F
:101460000000DE01FE002B012B029C013A018E01DF
:101470000D0A004D616368696E6520496E69746983
:10148000616C697A65642E2057616974696E6720A2
:10149000666F7220484D492E2E2E00434D443A531C
:1014A0005441525400484D493A204F70657261745E
:1014B0006F72207072657373656420535441525487
:1014C00000434D443A53544F5000484D493A204F41
:1014D00070657261746F72207072657373656420D9
:1014E00053544F502028452D53544F5029005345F5
:1014F000543A4D415247494E2C00484D493A2044F8
:10150000697370656E7365204D617267696E2075D1
:1015100070646174656420746F202D3E20004379EF
:10152000636C652053746172746564202853656E22
:10153000736F72205472696767657265642900472A
:101540006170204465746563746564206174207300
:101550007465703A20004552524F523A204D6178DE
:1015600020737465707320726561636865642120FF
:10157000476170206E6F7420666F756E642E004335
:1015800079636C6520436F6D706C6574652E000027
:107E0000112484B714BE81FFF0D085E080938100F7
:107E100082E08093C00088E18093C10086E0809377
:107E2000C20080E18093C4008EE0C9D0259A86E02C
:107E300020E33CEF91E0309385002093840096BBD3
:107E4000B09BFECF1D9AA8958150A9F7CC24DD24C4
:107E500088248394B5E0AB2EA1E19A2EF3E0BF2EE7
:107E6000A2D0813461F49FD0082FAFD0023811F036
:107E7000013811F484E001C083E08DD089C08234E0
:107E800011F484E103C0853419F485E0A6D080C0E4
:107E9000853579F488D0E82EFF2485D0082F10E0AE
:107EA000102F00270E291F29000F111F8ED06801E7
:107EB0006FC0863521F484E090D080E0DECF843638
:107EC00009F040C070D06FD0082F6DD080E0C81688
:107ED00080E7D80618F4F601B7BEE895C0E0D1E017
:107EE00062D089930C17E1F7F0E0CF16F0E7DF06D8
:107EF00018F0F601B7BEE89568D007B600FCFDCFD4
:107F0000A601A0E0B1E02C9130E011968C91119780
:107F100090E0982F8827822B932B1296FA010C0160
:107F200087BEE89511244E5F5F4FF1E0A038BF0790
:107F300051F7F601A7BEE89507B600FCFDCF97BE46
:107F4000E89526C08437B1F42ED02DD0F82E2BD052
:107F50003CD0F601EF2C8F010F5F1F4F84911BD097
:107F6000EA94F801C1F70894C11CD11CFA94CF0C13
:107F7000D11C0EC0853739F428D08EE10CD085E9AC
:107F80000AD08FE07ACF813511F488E018D01DD067
:107F900080E101D065CF982F8091C00085FFFCCF94
:107FA0009093C60008958091C00087FFFCCF809118
:107FB000C00084FD01C0A8958091C6000895E0E648
:107FC000F0E098E1908380830895EDDF803219F02E
:107FD00088E0F5DFFFCF84E1DECF1F93182FE3DFCA
:107FE0001150E9F7F2DF1F91089580E0E8DFEE27F6
:047FF000FF270994CA
:027FFE00040479
:00000001FF
