:100000000C9462000C948A000C948A000C948A0070
:100010000C948A000C948A000C948A000C948A0038
:100020000C948A000C948A000C948A000C948A0028
:100030000C948A000C948A000C948A000C948A0018
:100040000C94E4020C948A000C9454030C942E0338
:100050000C948A000C948A000C948A000C948A00F8
:100060000C948A000C948A000000000024002700F1
:100070002A0000000000250028002B0000000000DE
:1000800023002600290004040404040404040202DA
:100090000202020203030303030301020408102007
:1000A0004080010204081020010204081020000012
:1000B0000008000201000003040700000000000027
:1000C00000007E0411241FBECFEFD8E0DEBFCDBFFD
:1000D00011E0A0E0B1E0EAEAF9E002C005900D927B
:1000E000AA34B107D9F721E0AAE4B1E001C01D921A
:1000F000A03FB207E1F710E0C2E6D0E004C02197CC
:10010000FE010E94CD04C136D107C9F70E948603C3
:100110000C94D3040C940000E3E5F1E0A089B189CC
:1001200082E08C93A485B5851C92A685B7858FEC5B
:100130008C93108EA489B58986E08C93A289B389AB
:100140008C9180618C93A289B3898C9188608C9307
:10015000A289B3898C9180688C930288F389E02D01
:1001600080818F7D80830895833081F028F48130F1
:1001700099F08230A9F008958730A9F08830C9F04D
:100180008430B1F4809180008F7D03C08091800025
:100190008F7780938000089584B58F7784BD08950C
:1001A00084B58F7DFBCF8091B0008F778093B000B6
:1001B00008958091B0008F7DF9CFCF93DF93282FE2
:1001C00030E0F901E255FF4F8491F901E656FF4F07
:1001D000D491F901EA57FF4FC491CC23A1F08111CA
:1001E0000E94B400EC2FF0E0EE0FFF1FE458FF4F29
:1001F000A591B491EC91ED2381E090E009F480E0C9
:10020000DF91CF91089580E090E0FACF1F93CF93D4
:10021000DF93282F30E0F901E255FF4F8491F90177
:10022000E656FF4FD491F901EA57FF4FC491CC2312
:10023000A9F0162F81110E94B400EC2FF0E0EE0F10
:10024000FF1FEE58FF4FA591B4918FB7F894EC9132
:10025000111108C0D095DE23DC938FBFDF91CF91C1
:100260001F910895DE2BF8CFCF93DF9390E0FC0130
:10027000E656FF4F24918A579F4FFC0184918823B3
:10028000D1F090E0880F991FFC01E859FF4FA5912C
:10029000B491FC01EE58FF4FC591D491623071F4D6
:1002A0009FB7F8943C91822F809583238C93E881AB
:1002B0002E2B28839FBFDF91CF9108958FB7F8949D
:1002C000EC912E2B2C938FBFF6CF3FB7F8948091F3
:1002D0004F0190915001A0915101B091520126B56A
:1002E000A89B05C02F3F19F00196A11DB11D3FBF6E
:1002F000BA2FA92F982F8827BC01CD01620F711D3D
:10030000811D911D42E0660F771F881F991F4A9536
:10031000D1F708958F929F92AF92BF92CF92DF92C2
:10032000EF92FF924B015C010E9465016B017C0121
:100330000E9465016C197D098E099F09683E734012
:1003400081059105A8F321E0821A9108A108B1085E
:1003500088EEC80E83E0D81EE11CF11C81149104C4
:10036000A104B10429F7FF90EF90DF90CF90BF90E8
:10037000AF909F908F900895AF92BF92CF92DF92EF
:10038000EF92FF920F931F93CF93DF936C017B014A
:100390008B01040F151FEB015E01AE18BF08C017DB
:1003A000D10759F06991D601ED91FC910190F0814E
:1003B000E02DC6010995892B79F7C501DF91CF9111
:1003C0001F910F91FF90EF90DF90CF90BF90AF9073
:1003D0000895FC01538D448D252F30E0842F90E04B
:1003E000821B930B541710F0CF9608950197089530
:1003F000FC01918D828D981761F0A28DAE0FBF2FF9
:10040000B11D5D968C91928D9F5F9F73928F90E04E
:1004100008958FEF9FEF0895FC01918D828D9817BD
:1004200031F0828DE80FF11D858D90E008958FEFFA
:100430009FEF0895FC01918D228D892F90E0805CC3
:100440009F4F821B91098F739927089583E591E04F
:100450000E941A0221E0892B09F420E0822F0895DE
:1004600080E090E0892B29F00E94260281110C94F3
:1004700000000895FC01A48DA80FB92FB11DA35A47
:10048000BF4F2C91848D90E001968F739927848FB4
:10049000A689B7892C93A089B1898C9183708064D7
:1004A0008C93938D848D981306C00288F389E02D78
:1004B00080818F7D80830895EF92FF920F931F9329
:1004C000CF93DF93EC0181E0888F9B8D8C8D981307
:1004D0001AC0E889F989808185FF15C09FB7F89413
:1004E000EE89FF896083E889F9898081837080645F
:1004F00080839FBF81E090E0DF91CF911F910F91AA
:10050000FF90EF900895F62E0B8D10E00F5F1F4FB8
:100510000F731127E02E8C8D8E110CC00FB607FCC7
:10052000FACFE889F989808185FFF5CFCE010E9455
:100530003A02F1CFEB8DEC0FFD2FF11DE35AFF4F87
:10054000F0829FB7F8940B8FEA89FB8980818062E3
:10055000CFCFCF93DF93EC01888D8823B9F0AA89A0
:10056000BB89E889F9898C9185FD03C0808186FD6E
:100570000DC00FB607FCF7CF8C9185FFF2CF8081BD
:1005800085FFEDCFCE010E943A02E9CFDF91CF91F6
:100590000895FC0101900020E9F73197AF01481B55
:1005A000590BBC0183E591E00C94BC01CF93DF9320
:1005B0000E94C902EC0182E191E00E94C9028C0F05
:1005C0009D1FDF91CF9108951F920F920FB60F924A
:1005D00011242F933F938F939F93AF93BF93809159
:1005E0004B0190914C01A0914D01B0914E01309181
:1005F0004A0123E0230F2D3758F50196A11DB11DA7
:1006000020934A0180934B0190934C01A0934D019C
:10061000B0934E0180914F0190915001A0915101F2
:10062000B09152010196A11DB11D80934F0190938D
:100630005001A0935101B0935201BF91AF919F918E
:100640008F913F912F910F900FBE0F901F90189593
:1006500026E8230F0296A11DB11DD2CF1F920F9243
:100660000FB60F9211242F933F934F935F936F9385
:100670007F938F939F93AF93BF93EF93FF9383E504
:1006800091E00E943A02FF91EF91BF91AF919F914B
:100690008F917F916F915F914F913F912F910F902B
:1006A0000FBE0F901F9018951F920F920FB60F92CA
:1006B00011242F938F939F93EF93FF93E091630106
:1006C000F09164018081E0916901F0916A0182FDFD
:1006D0001BC0908180916C018F5F8F7320916D01A1
:1006E000821741F0E0916C01F0E0ED5AFE4F958FDA
:1006F00080936C01FF91EF919F918F912F910F90BB
:100700000FBE0F901F9018958081F4CFCF93DF9389
:10071000CDB7DEB7A2970FB6F894DEBF0FBECDBF40
:10072000789484B5826084BD84B5816084BD85B5CC
:10073000826085BD85B5816085BD80916E008160D8
:1007400080936E001092810080918100826080937E
:100750008100809181008160809381008091800080
:100760008160809380008091B10084608093B100AB
:100770008091B00081608093B00080917A008460A5
:1007800080937A0080917A00826080937A008091D1
:100790007A00816080937A0080917A0080688093EB
:1007A0007A001092C10061E089E00E94340161E0AA
:1007B00088E00E94340162E087E00E94340162E038
:1007C00086E00E9434010E948C0061E088E00E9473
:1007D00006018BE8882E992493949AE0492E512C97
:1007E000612C712C20E0222E20E0322E0E948C0001
:1007F00068EE73E080E090E00E948A0185E191E07C
:100800000E94D60287E00E94DD00892B09F45AC0BD
:100810008DE191E00E94D602C12CD12C760110E02E
:1008200000E01AA2560161E089E00E940601C401BD
:100830000197F1F760E089E00E940601C401019789
:10084000F1F761E070E080E090E00E948A018AA107
:10085000811129C086E00E94DD00892B09F440C087
:100860008DE291E00E94C90219A2A70196018E01B2
:100870000F5D1F4FCA01B901A30192010E94AB0491
:10088000605DF80162938F01211531054105510525
:1008900089F7309719F0CF010E94C90282E191E0F7
:1008A0000E94C9028501C801805B9F4FA816B90646
:1008B000ACF08BE391E00E94D60287E00E94DD005D
:1008C000892BD9F72114310409F490CF0E94260214
:1008D000882309F48BCF0E94000088CFF1E0FAA3AF
:1008E0008FEFC81AD80AE80AF80AE8EECE16E3E055
:1008F000DE06E104F10409F095CFDFCFE3E5F1E096
:100900001382128288EE93E0A0E0B0E084839583A6
:10091000A683B78384E091E09183808385EC90E0A7
:100920009587848784EC90E09787868780EC90E0B9
:10093000918B808B81EC90E0938B828B82EC90E0AA
:10094000958B848B86EC90E0978B868B118E128E24
:10095000138E148E0895A1E21A2EAA1BBB1BFD0153
:100960000DC0AA1FBB1FEE1FFF1FA217B307E4078E
:10097000F50720F0A21BB30BE40BF50B661F771FE6
:10098000881F991F1A9469F76095709580959095C6
:100990009B01AC01BD01CF010895EE0FFF1F059033
:0A09A000F491E02D0994F894FFCFC4
:1009AA00000000005C02BC01E901A9021A02F80178
:1009BA000C020D0A005354415254454400426F74CC
:1009CA00746C65204465746563746564004761707E
:1009DA0020466F756E6420417420004379636C650C
:0A09EA0020436F6D706C65746500AA
:00000001FF
